:100000000C9434000C9451000C9451000C94510049
:100010000C9451000C9451000C9451000C9451001C
:100020000C9451000C9451000C9451000C9451000C
:100030000C9451000C9451000C9451000C945100FC
:100040000C9451000C9451000C9451000C945100EC
:100050000C9451000C9451000C9451000C945100DC
:100060000C9451000C94510011241FBECFEFD8E026
:10007000DEBFCDBF11E0A0E0B1E0E2E2FCE002C0F3
:1000800005900D92A437B107D9F721E0A4E7B1E0BC
:1000900001C01D92AE37B207E1F70E94EA020C944C
:1000A0000F060C940000229A85B1837F85B984E005
:1000B00085B92FEF82E597E0215080409040E1F72D
:1000C00000C000002A982FEF82E597E02150804081
:1000D0009040E1F700C0000008953C9A449886E102
:1000E00088B988E085B92FEF89E698E121508040F2
:1000F0009040E1F700C0000015B844982FEF82E56A
:1001000097E0215080409040E1F700C00000089542
:100110001BB881E08BB986B18130F9F42FEF84E30D
:100120009CE0215080409040E1F700C000008EE547
:1001300091E00E94B9028FE19EE40197F1F700C0BF
:10014000000080917C0190917D01FC01EE0FFF1F6A
:10015000EC58FE4F21E030E043C086B18230F9F424
:100160009FEF24E38CE0915020408040E1F700C0F5
:10017000000080E691E00E94B9028FE19EE40197C1
:10018000F1F700C0000080917C0190917D01FC019D
:10019000EE0FFF1FEC58FE4F24E030E021C086B187
:1001A000843061F59FEF24E38CE091502040804043
:1001B000E1F700C0000082E691E00E94B9028FE101
:1001C0009EE40197F1F700C0000080917C019091BE
:1001D0007D01FC01EE0FFF1FEC58FE4F27E030E0E1
:1001E00031832083019690937D0180937C018FE180
:1001F0009EE40197F1F700C0000019C086B1883075
:1002000091F49FEF24E38CE0915020408040E1F78F
:1002100000C0000084E691E00E94B9020E94DE0264
:1002200081E090E00895289829982A982B9880E0FA
:1002300090E008951BB882E08BB986B18130F9F463
:100240002FEF84E39CE0215080409040E1F700C014
:10025000000086E691E00E94B9028FE19EE40197DA
:10026000F1F700C0000080917C0190917D01FC01BC
:10027000EE0FFF1FEC58FE4F22E030E021C086B1A8
:10028000823061F59FEF24E38CE091502040804064
:10029000E1F700C0000088E691E00E94B9028FE11A
:1002A0009EE40197F1F700C0000080917C019091DD
:1002B0007D01FC01EE0FFF1FEC58FE4F25E030E002
:1002C00031832083019690937D0180937C018FE19F
:1002D0009EE40197F1F700C0000048C086B1843069
:1002E000F9F49FEF24E38CE0915020408040E1F747
:1002F00000C000008AE691E00E94B9028FE19EE40E
:100300000197F1F700C0000080917C0190917D0180
:10031000FC01EE0FFF1FEC58FE4F28E030E0D0CF7D
:1003200086B18830F9F49FEF24E38CE091502040AF
:100330008040E1F700C000008CE691E00E94B90225
:100340008FE19EE40197F1F700C0000080917C01ED
:1003500090917D01FC01EE0FFF1FEC58FE4F1182C2
:100360001082B0CF289829982A982B9880E090E0A6
:1003700008951BB884E08BB986B18130F9F42FEF72
:1003800084E39CE0215080409040E1F700C00000F1
:100390008EE691E00E94B9028FE19EE40197F1F7A9
:1003A00000C0000080917C0190917D01FC01EE0F66
:1003B000FF1FEC58FE4F23E030E021C086B18230B1
:1003C00061F59FEF24E38CE0915020408040E1F7FD
:1003D00000C0000080E791E00E94B9028FE19EE436
:1003E0000197F1F700C0000080917C0190917D01A0
:1003F000FC01EE0FFF1FEC58FE4F26E030E031838A
:100400002083019690937D0180937C018FE19EE48F
:100410000197F1F700C000003BC086B18430F9F4C9
:100420009FEF24E38CE0915020408040E1F700C032
:10043000000082E791E00E94B9028FE19EE40197FB
:10044000F1F700C0000080917C0190917D01FC01DA
:10045000EE0FFF1FEC58FE4F29E030E0D0CF86B101
:10046000883091F49FEF24E38CE09150204080404D
:10047000E1F700C000008CE291E00E94B9020E9406
:1004800053000E94DE0204C0289829982A982B98CD
:1004900080E090E0089595B19F70282F207F922BE7
:1004A00095B92898299A32E03A95F1F700C0299831
:1004B000EFE8F1E03197F1F700C0000025B12F70AF
:1004C000F0E18F9FC0011124822B85B9299A32E077
:1004D0003A95F1F700C029988FE99FE00197F1F76D
:1004E00000C00000089595B19F70282F207F922BA7
:1004F00095B9289A299A32E03A95F1F700C02998DF
:10050000EFE8F1E03197F1F700C0000025B12F705E
:10051000F0E18F9FC0011124822B85B9299A32E026
:100520003A95F1F700C029988FE99FE00197F1F71C
:1005300000C0000008958FEF84B98FE39CE9019714
:10054000F1F700C0000082E00E944B0288E20E94A6
:100550004B028CE00E944B0286E00E944B0281E03D
:100560000E944B028FE99FE00197F1F700C0000065
:100570000895CF93DF93EC018991882319F00E94AD
:100580007302FACFDF91CF910895CF93DF93EA0101
:10059000811106C060316CF4862F8F70806807C0AF
:1005A000813039F460312CF4862F8F70806C0E947A
:1005B0004B02CE01DF91CF910C94B90281E00E94F1
:1005C0004B028FE99FE00197F1F700C0000080E83F
:1005D0000C944B02CF93DF93CDB7DEB728970FB6BD
:1005E000F894DEBF0FBECDBF0FEF18E014B817B8F8
:1005F0001AB815B818B81BB810927D0110927C017A
:1006000088E0E0E0F1E0DE01119601900D928A951C
:10061000E1F70E94DE020E949B0288E091E00E94C6
:10062000B9022FEF81EE94E0215080409040E1F735
:1006300000C000008AE091E00E94B902EFEFF1EE05
:1006400024E0E150F0402040E1F700C000008CE0E1
:1006500091E00E94B9028FEF91EEE4E0815090406A
:10066000E040E1F700C000008CE091E00E94B90298
:10067000FFEF21EE84E0F15020408040E1F700C020
:1006800000008EE091E00E94B9029FEFE1EEF4E0FD
:100690009150E040F040E1F700C0000080E191E0BF
:1006A0000E94B9022FEF81EE94E0215080409040EB
:1006B000E1F700C0000080E191E00E94B902EFEF95
:1006C000F1EE24E0E150F0402040E1F700C00000EE
:1006D00080E191E00E94B9028FEF99E6E8E1815054
:1006E0009040E040E1F700C000000E94DE0284E399
:1006F00091E00E94B902FFEF21EE84E0F15020402A
:100700008040E1F700C0000082E191E00E94B90260
:100710009FEFE1EEF4E09150E040F040E1F700C0DF
:10072000000084E191E00E94B9022FEF81EE94E095
:10073000215080409040E1F700C000008AE091E045
:100740000E94B902EFEFF1EE24E0E150F0402040CA
:10075000E1F700C000008DE491E00E94B9028FEF44
:1007600091EEE4E081509040E040E1F700C00000ED
:1007700086E191E00E94B902FFEF21EE84E0F150A2
:1007800020408040E1F700C0000088E191E00E9435
:10079000B9029FEFE1EEF4E09150E040F040E1F764
:1007A00000C000008AE191E00E94B9022FEF81EEC3
:1007B00094E0215080409040E1F700C000008CE1BF
:1007C00091E00E94B902EFEFF1EE24E0E150F04039
:1007D0002040E1F700C000008CE191E00E94B902E6
:1007E0008FEF91EEE4E081509040E040E1F700C0EF
:1007F00000008EE191E00E94B902FFEF21EE84E05B
:10080000F15020408040E1F700C000008EE091E010
:100810000E94B9029FEFE1EEF4E09150E040F04019
:10082000E1F700C000008DE491E00E94B9022FEFD3
:1008300081EE94E0215080409040E1F700C000003C
:100840008CE591E00E94B902EFEFF5EA2EE0E1506D
:10085000F0402040E1F700C000000E94DE0284E189
:1008600091E00E94B9028FEF91EEE4E08150904058
:10087000E040E1F700C000008EE091E00E94B90284
:10088000FFEF21EE84E0F15020408040E1F700C00E
:10089000000086E191E00E94B9029FEFE1EEF4E0F2
:1008A0009150E040F040E1F700C0000080E291E0AC
:1008B0000E94B9022FEF81EE94E0215080409040D9
:1008C000E1F700C0000082E191E00E94B902EFEF81
:1008D000F1EE24E0E150F0402040E1F700C00000DC
:1008E0008CE091E00E94B9028FEF91EEE4E081503C
:1008F0009040E040E1F700C000008EE091E00E94EF
:10090000B902FFEF21EE84E0F15020408040E1F792
:1009100000C0000082E291E00E94B9029FEFE1EE88
:10092000F4E09150E040F040E1F700C0000084E2C4
:1009300091E00E94B9022FEF85EA9EE021508040AD
:100940009040E1F700C000000E94DE0286E291E0E4
:100950000E94B902EFEFF1EE24E0E150F0402040B8
:10096000E1F700C0000088E291E00E94B9028FEF39
:1009700095EAEEE081509040E040E1F700C00000D1
:100980000E94DE028AE291E00E94B902FFEF21EEAE
:1009900084E0F15020408040E1F700C000008DE489
:1009A00091E00E94B9029FEFE1EEF4E09150E04047
:1009B000F040E1F700C000008AE091E00E94B90237
:1009C0002FEF81EE94E0215080409040E1F700C08D
:1009D00000008CE191E00E94B902EFEFF1EE24E01B
:1009E000E150F0402040E1F700C000008CE191E0D0
:1009F0000E94B9028FEF91EEE4E081509040E04018
:100A0000E1F700C0000086E191E00E94B902FFEF2B
:100A100021EE84E0F15020408040E1F700C000006A
:100A20008CE291E00E94B9029FEFE1EEF4E0915078
:100A3000E040F040E1F700C0000086E191E00E9454
:100A4000B9022FEF81EE94E0215080409040E1F711
:100A500000C0000084E191E00E94B902EFEFF1EEE6
:100A600024E0E150F0402040E1F700C000008EE0BB
:100A700091E00E94B9028FEF91EEE4E08150904046
:100A8000E040E1F700C0000086E191E00E94B90279
:100A9000FFEF21EE84E0F15020408040E1F700C0FC
:100AA00000008CE091E00E94B9029FEFE1EEF4E0DB
:100AB0009150E040F040E1F700C000008EE091E08E
:100AC0000E94B9022FEF81EE94E0215080409040C7
:100AD000E1F700C0000082E291E00E94B902EFEF6E
:100AE000F1EE24E0E150F0402040E1F700C00000CA
:100AF00084E291E00E94B9028FEF99E6E8E181502B
:100B00009040E040E1F700C000000E94DE0217B80C
:100B10000AB90E948800EFE1FEE43197F1F700C0C6
:100B20000000019709F462CD0E941A018FE19EE452
:100B30000197F1F700C000000E94B901EFE1FEE467
:100B40003197F1F700C0000080917C0190917D0108
:100B50000497F9F648E050E0BE016F5F7F4F84E7ED
:100B600091E00E940206892BE1F40E94DE028EE2EF
:100B700091E00E94B9020E946D0010927D011092D6
:100B80007C01FFEF2DE389E4F15020408040E1F744
:100B900000C000000E94DE0286E391E00E94B902DC
:100BA00025CD0E94DE028FE491E00E94B90215B9C2
:100BB0009FEFE3ECF9E09150E040F040E1F700C036
:100BC000000015B82FEF83EC99E021508040904051
:100BD000E1F700C0000015B9EFEFF3EC29E0E150B8
:100BE000F0402040E1F700C0000015B810927D01F0
:100BF00010927C018FEF9DE3E9E481509040E0404A
:100C0000E1F771CDFB01DC0104C08D9101908019E9
:100C100021F441505040C8F7881B990B0895F8946F
:020C2000FFCF04
:100C22000100020003000400480065006C006F0030
:100C32002E006E00740020005000610073007700E7
:100C4200750063006B004F0052007000230057458F
:100C52004C434F4D45007072657373202320746FAF
:100C6200206C6F636B2074686520646F6F7200770D
:100C7200726F6E672070617373776F7264003100F8
:100C8200340037002A0032003500380030003300CB
:040C920036003900EF
:00000001FF
